{
  "_format": "hh-sol-artifact-1",
  "contractName": "MVMarket",
  "sourceName": "contracts/MVMarket.sol",
  "abi": [
    {
      "inputs": [],
      "stateMutability": "nonpayable",
      "type": "constructor"
    },
    {
      "anonymous": false,
      "inputs": [
        {
          "indexed": true,
          "internalType": "uint256",
          "name": "itemId",
          "type": "uint256"
        },
        {
          "indexed": true,
          "internalType": "address",
          "name": "nftContract",
          "type": "address"
        },
        {
          "indexed": true,
          "internalType": "uint256",
          "name": "tokenId",
          "type": "uint256"
        },
        {
          "indexed": false,
          "internalType": "address",
          "name": "seller",
          "type": "address"
        },
        {
          "indexed": false,
          "internalType": "address",
          "name": "owner",
          "type": "address"
        },
        {
          "indexed": false,
          "internalType": "uint256",
          "name": "price",
          "type": "uint256"
        },
        {
          "indexed": false,
          "internalType": "bool",
          "name": "sold",
          "type": "bool"
        }
      ],
      "name": "MarketTokenMinted",
      "type": "event"
    },
    {
      "inputs": [
        {
          "internalType": "address",
          "name": "nftContract",
          "type": "address"
        },
        {
          "internalType": "uint256",
          "name": "itemId",
          "type": "uint256"
        }
      ],
      "name": "createMarketSale",
      "outputs": [],
      "stateMutability": "payable",
      "type": "function"
    },
    {
      "inputs": [],
      "name": "getItemsCreated",
      "outputs": [
        {
          "components": [
            {
              "internalType": "uint256",
              "name": "itemId",
              "type": "uint256"
            },
            {
              "internalType": "address",
              "name": "nftContract",
              "type": "address"
            },
            {
              "internalType": "uint256",
              "name": "tokenId",
              "type": "uint256"
            },
            {
              "internalType": "address payable",
              "name": "seller",
              "type": "address"
            },
            {
              "internalType": "address payable",
              "name": "owner",
              "type": "address"
            },
            {
              "internalType": "uint256",
              "name": "price",
              "type": "uint256"
            },
            {
              "internalType": "bool",
              "name": "sold",
              "type": "bool"
            }
          ],
          "internalType": "struct MVMarket.MarketToken[]",
          "name": "",
          "type": "tuple[]"
        }
      ],
      "stateMutability": "view",
      "type": "function"
    },
    {
      "inputs": [],
      "name": "getListingPrice",
      "outputs": [
        {
          "internalType": "uint256",
          "name": "",
          "type": "uint256"
        }
      ],
      "stateMutability": "view",
      "type": "function"
    },
    {
      "inputs": [],
      "name": "getMarketTokens",
      "outputs": [
        {
          "components": [
            {
              "internalType": "uint256",
              "name": "itemId",
              "type": "uint256"
            },
            {
              "internalType": "address",
              "name": "nftContract",
              "type": "address"
            },
            {
              "internalType": "uint256",
              "name": "tokenId",
              "type": "uint256"
            },
            {
              "internalType": "address payable",
              "name": "seller",
              "type": "address"
            },
            {
              "internalType": "address payable",
              "name": "owner",
              "type": "address"
            },
            {
              "internalType": "uint256",
              "name": "price",
              "type": "uint256"
            },
            {
              "internalType": "bool",
              "name": "sold",
              "type": "bool"
            }
          ],
          "internalType": "struct MVMarket.MarketToken[]",
          "name": "",
          "type": "tuple[]"
        }
      ],
      "stateMutability": "view",
      "type": "function"
    },
    {
      "inputs": [],
      "name": "getMyNFTs",
      "outputs": [
        {
          "components": [
            {
              "internalType": "uint256",
              "name": "itemId",
              "type": "uint256"
            },
            {
              "internalType": "address",
              "name": "nftContract",
              "type": "address"
            },
            {
              "internalType": "uint256",
              "name": "tokenId",
              "type": "uint256"
            },
            {
              "internalType": "address payable",
              "name": "seller",
              "type": "address"
            },
            {
              "internalType": "address payable",
              "name": "owner",
              "type": "address"
            },
            {
              "internalType": "uint256",
              "name": "price",
              "type": "uint256"
            },
            {
              "internalType": "bool",
              "name": "sold",
              "type": "bool"
            }
          ],
          "internalType": "struct MVMarket.MarketToken[]",
          "name": "",
          "type": "tuple[]"
        }
      ],
      "stateMutability": "view",
      "type": "function"
    },
    {
      "inputs": [
        {
          "internalType": "address",
          "name": "nftContract",
          "type": "address"
        },
        {
          "internalType": "uint256",
          "name": "tokenId",
          "type": "uint256"
        },
        {
          "internalType": "uint256",
          "name": "price",
          "type": "uint256"
        }
      ],
      "name": "makeMarketItem",
      "outputs": [],
      "stateMutability": "payable",
      "type": "function"
    }
  ],
  "bytecode": "0x6080604052620186a060045534801561001757600080fd5b50600160008190555033600360006101000a81548173ffffffffffffffffffffffffffffffffffffffff021916908373ffffffffffffffffffffffffffffffffffffffff1602179055506118e8806100706000396000f3fe6080604052600436106100555760003560e01c806312e855851461005a57806342a0dd3414610085578063629cb2e4146100b05780637a060f56146100db578063c23b139e146100f7578063e8b08f0414610113575b600080fd5b34801561006657600080fd5b5061006f61013e565b60405161007c91906111b5565b60405180910390f35b34801561009157600080fd5b5061009a610148565b6040516100a79190611399565b60405180910390f35b3480156100bc57600080fd5b506100c5610412565b6040516100d29190611399565b60405180910390f35b6100f560048036038101906100f09190611418565b610776565b005b610111600480360381019061010c919061146b565b610ada565b005b34801561011f57600080fd5b50610128610d93565b6040516101359190611399565b60405180910390f35b6000600454905090565b6060600061015660016110f7565b9050600061016460026110f7565b61016e60016110f7565b61017891906114da565b90506000808267ffffffffffffffff8111156101975761019661150e565b5b6040519080825280602002602001820160405280156101d057816020015b6101bd61111b565b8152602001906001900390816101b55790505b50905060005b8481101561040757600073ffffffffffffffffffffffffffffffffffffffff1660056000600184610207919061153d565b815260200190815260200160002060040160009054906101000a900473ffffffffffffffffffffffffffffffffffffffff1673ffffffffffffffffffffffffffffffffffffffff1614156103f4576000600182610264919061153d565b90506000600560008381526020019081526020016000209050806040518060e0016040529081600082015481526020016001820160009054906101000a900473ffffffffffffffffffffffffffffffffffffffff1673ffffffffffffffffffffffffffffffffffffffff1673ffffffffffffffffffffffffffffffffffffffff168152602001600282015481526020016003820160009054906101000a900473ffffffffffffffffffffffffffffffffffffffff1673ffffffffffffffffffffffffffffffffffffffff1673ffffffffffffffffffffffffffffffffffffffff1681526020016004820160009054906101000a900473ffffffffffffffffffffffffffffffffffffffff1673ffffffffffffffffffffffffffffffffffffffff1673ffffffffffffffffffffffffffffffffffffffff168152602001600582015481526020016006820160009054906101000a900460ff1615151515815250508486815181106103d7576103d6611593565b5b60200260200101819052506001856103ef919061153d565b945050505b80806103ff906115c2565b9150506101d6565b508094505050505090565b6060600061042060016110f7565b905060008060005b838110156104c9573373ffffffffffffffffffffffffffffffffffffffff1660056000600184610458919061153d565b815260200190815260200160002060040160009054906101000a900473ffffffffffffffffffffffffffffffffffffffff1673ffffffffffffffffffffffffffffffffffffffff1614156104b6576001836104b3919061153d565b92505b80806104c1906115c2565b915050610428565b5060008267ffffffffffffffff8111156104e6576104e561150e565b5b60405190808252806020026020018201604052801561051f57816020015b61050c61111b565b8152602001906001900390816105045790505b50905060005b8481101561076b573373ffffffffffffffffffffffffffffffffffffffff1660056000600184610555919061153d565b815260200190815260200160002060040160009054906101000a900473ffffffffffffffffffffffffffffffffffffffff1673ffffffffffffffffffffffffffffffffffffffff161415610758576000600560006001846105b6919061153d565b81526020019081526020016000206000015490506000600560008381526020019081526020016000209050806040518060e0016040529081600082015481526020016001820160009054906101000a900473ffffffffffffffffffffffffffffffffffffffff1673ffffffffffffffffffffffffffffffffffffffff1673ffffffffffffffffffffffffffffffffffffffff168152602001600282015481526020016003820160009054906101000a900473ffffffffffffffffffffffffffffffffffffffff1673ffffffffffffffffffffffffffffffffffffffff1673ffffffffffffffffffffffffffffffffffffffff1681526020016004820160009054906101000a900473ffffffffffffffffffffffffffffffffffffffff1673ffffffffffffffffffffffffffffffffffffffff1673ffffffffffffffffffffffffffffffffffffffff168152602001600582015481526020016006820160009054906101000a900460ff16151515158152505084868151811061073b5761073a611593565b5b6020026020010181905250600185610753919061153d565b945050505b8080610763906115c2565b915050610525565b508094505050505090565b600260005414156107bc576040517f08c379a00000000000000000000000000000000000000000000000000000000081526004016107b390611668565b60405180910390fd5b600260008190555060008111610807576040517f08c379a00000000000000000000000000000000000000000000000000000000081526004016107fe906116d4565b60405180910390fd5b600454341461084b576040517f08c379a000000000000000000000000000000000000000000000000000000000815260040161084290611766565b60405180910390fd5b6108556001611105565b600061086160016110f7565b90506040518060e001604052808281526020018573ffffffffffffffffffffffffffffffffffffffff1681526020018481526020013373ffffffffffffffffffffffffffffffffffffffff168152602001600073ffffffffffffffffffffffffffffffffffffffff16815260200183815260200160001515815250600560008381526020019081526020016000206000820151816000015560208201518160010160006101000a81548173ffffffffffffffffffffffffffffffffffffffff021916908373ffffffffffffffffffffffffffffffffffffffff1602179055506040820151816002015560608201518160030160006101000a81548173ffffffffffffffffffffffffffffffffffffffff021916908373ffffffffffffffffffffffffffffffffffffffff16021790555060808201518160040160006101000a81548173ffffffffffffffffffffffffffffffffffffffff021916908373ffffffffffffffffffffffffffffffffffffffff16021790555060a0820151816005015560c08201518160060160006101000a81548160ff0219169083151502179055509050508373ffffffffffffffffffffffffffffffffffffffff166323b872dd3330866040518463ffffffff1660e01b8152600401610a4293929190611795565b600060405180830381600087803b158015610a5c57600080fd5b505af1158015610a70573d6000803e3d6000fd5b50505050828473ffffffffffffffffffffffffffffffffffffffff16827fcd9b0dfebab7db4dbe70606f69fadc8e987e7c80a65410f0bb5ae8bd72dabba7336000876000604051610ac494939291906117db565b60405180910390a4506001600081905550505050565b60026000541415610b20576040517f08c379a0000000000000000000000000000000000000000000000000000000008152600401610b1790611668565b60405180910390fd5b6002600081905550600060056000838152602001908152602001600020600501549050600060056000848152602001908152602001600020600201549050813414610ba0576040517f08c379a0000000000000000000000000000000000000000000000000000000008152600401610b9790611892565b60405180910390fd5b6005600084815260200190815260200160002060030160009054906101000a900473ffffffffffffffffffffffffffffffffffffffff1673ffffffffffffffffffffffffffffffffffffffff166108fc349081150290604051600060405180830381858888f19350505050158015610c1c573d6000803e3d6000fd5b508373ffffffffffffffffffffffffffffffffffffffff166323b872dd3033846040518463ffffffff1660e01b8152600401610c5a93929190611795565b600060405180830381600087803b158015610c7457600080fd5b505af1158015610c88573d6000803e3d6000fd5b50505050336005600085815260200190815260200160002060040160006101000a81548173ffffffffffffffffffffffffffffffffffffffff021916908373ffffffffffffffffffffffffffffffffffffffff16021790555060016005600085815260200190815260200160002060060160006101000a81548160ff021916908315150217905550610d1a6002611105565b600360009054906101000a900473ffffffffffffffffffffffffffffffffffffffff1673ffffffffffffffffffffffffffffffffffffffff166108fc6004549081150290604051600060405180830381858888f19350505050158015610d84573d6000803e3d6000fd5b50505060016000819055505050565b60606000610da160016110f7565b905060008060005b83811015610e4a573373ffffffffffffffffffffffffffffffffffffffff1660056000600184610dd9919061153d565b815260200190815260200160002060030160009054906101000a900473ffffffffffffffffffffffffffffffffffffffff1673ffffffffffffffffffffffffffffffffffffffff161415610e3757600183610e34919061153d565b92505b8080610e42906115c2565b915050610da9565b5060008267ffffffffffffffff811115610e6757610e6661150e565b5b604051908082528060200260200182016040528015610ea057816020015b610e8d61111b565b815260200190600190039081610e855790505b50905060005b848110156110ec573373ffffffffffffffffffffffffffffffffffffffff1660056000600184610ed6919061153d565b815260200190815260200160002060030160009054906101000a900473ffffffffffffffffffffffffffffffffffffffff1673ffffffffffffffffffffffffffffffffffffffff1614156110d957600060056000600184610f37919061153d565b81526020019081526020016000206000015490506000600560008381526020019081526020016000209050806040518060e0016040529081600082015481526020016001820160009054906101000a900473ffffffffffffffffffffffffffffffffffffffff1673ffffffffffffffffffffffffffffffffffffffff1673ffffffffffffffffffffffffffffffffffffffff168152602001600282015481526020016003820160009054906101000a900473ffffffffffffffffffffffffffffffffffffffff1673ffffffffffffffffffffffffffffffffffffffff1673ffffffffffffffffffffffffffffffffffffffff1681526020016004820160009054906101000a900473ffffffffffffffffffffffffffffffffffffffff1673ffffffffffffffffffffffffffffffffffffffff1673ffffffffffffffffffffffffffffffffffffffff168152602001600582015481526020016006820160009054906101000a900460ff1615151515815250508486815181106110bc576110bb611593565b5b60200260200101819052506001856110d4919061153d565b945050505b80806110e4906115c2565b915050610ea6565b508094505050505090565b600081600001549050919050565b6001816000016000828254019250508190555050565b6040518060e0016040528060008152602001600073ffffffffffffffffffffffffffffffffffffffff16815260200160008152602001600073ffffffffffffffffffffffffffffffffffffffff168152602001600073ffffffffffffffffffffffffffffffffffffffff168152602001600081526020016000151581525090565b6000819050919050565b6111af8161119c565b82525050565b60006020820190506111ca60008301846111a6565b92915050565b600081519050919050565b600082825260208201905092915050565b6000819050602082019050919050565b6112058161119c565b82525050565b600073ffffffffffffffffffffffffffffffffffffffff82169050919050565b60006112368261120b565b9050919050565b6112468161122b565b82525050565b60006112578261120b565b9050919050565b6112678161124c565b82525050565b60008115159050919050565b6112828161126d565b82525050565b60e08201600082015161129e60008501826111fc565b5060208201516112b1602085018261123d565b5060408201516112c460408501826111fc565b5060608201516112d7606085018261125e565b5060808201516112ea608085018261125e565b5060a08201516112fd60a08501826111fc565b5060c082015161131060c0850182611279565b50505050565b60006113228383611288565b60e08301905092915050565b6000602082019050919050565b6000611346826111d0565b61135081856111db565b935061135b836111ec565b8060005b8381101561138c5781516113738882611316565b975061137e8361132e565b92505060018101905061135f565b5085935050505092915050565b600060208201905081810360008301526113b3818461133b565b905092915050565b600080fd5b6113c98161122b565b81146113d457600080fd5b50565b6000813590506113e6816113c0565b92915050565b6113f58161119c565b811461140057600080fd5b50565b600081359050611412816113ec565b92915050565b600080600060608486031215611431576114306113bb565b5b600061143f868287016113d7565b935050602061145086828701611403565b925050604061146186828701611403565b9150509250925092565b60008060408385031215611482576114816113bb565b5b6000611490858286016113d7565b92505060206114a185828601611403565b9150509250929050565b7f4e487b7100000000000000000000000000000000000000000000000000000000600052601160045260246000fd5b60006114e58261119c565b91506114f08361119c565b925082821015611503576115026114ab565b5b828203905092915050565b7f4e487b7100000000000000000000000000000000000000000000000000000000600052604160045260246000fd5b60006115488261119c565b91506115538361119c565b9250827fffffffffffffffffffffffffffffffffffffffffffffffffffffffffffffffff03821115611588576115876114ab565b5b828201905092915050565b7f4e487b7100000000000000000000000000000000000000000000000000000000600052603260045260246000fd5b60006115cd8261119c565b91507fffffffffffffffffffffffffffffffffffffffffffffffffffffffffffffffff821415611600576115ff6114ab565b5b600182019050919050565b600082825260208201905092915050565b7f5265656e7472616e637947756172643a207265656e7472616e742063616c6c00600082015250565b6000611652601f8361160b565b915061165d8261161c565b602082019050919050565b6000602082019050818103600083015261168181611645565b9050919050565b7f5072696365206d757374206265206174206c65617374206f6e65207765690000600082015250565b60006116be601e8361160b565b91506116c982611688565b602082019050919050565b600060208201905081810360008301526116ed816116b1565b9050919050565b7f5072696365206d75737420626520657175616c20746f206c697374696e67207060008201527f7269636500000000000000000000000000000000000000000000000000000000602082015250565b600061175060248361160b565b915061175b826116f4565b604082019050919050565b6000602082019050818103600083015261177f81611743565b9050919050565b61178f8161122b565b82525050565b60006060820190506117aa6000830186611786565b6117b76020830185611786565b6117c460408301846111a6565b949350505050565b6117d58161126d565b82525050565b60006080820190506117f06000830187611786565b6117fd6020830186611786565b61180a60408301856111a6565b61181760608301846117cc565b95945050505050565b7f506c65617365207375626d6974207468652061736b696e67207072696365206960008201527f6e206f7264657220746f20636f6e74696e756500000000000000000000000000602082015250565b600061187c60338361160b565b915061188782611820565b604082019050919050565b600060208201905081810360008301526118ab8161186f565b905091905056fea2646970667358221220551e5137310ac57e7b5203c179a47da28d48c926d135f12c6663d52870867e4d64736f6c634300080a0033",
  "linkReferences": {},
  "deployedLinkReferences": {}
}