{
  "_format": "hh-sol-artifact-1",
  "contractName": "NFT",
  "sourceName": "contracts/NFT.sol",
  "abi": [
    {
      "inputs": [
        {
          "internalType": "address",
          "name": "marketplaceAddress",
          "type": "address"
        }
      ],
      "stateMutability": "nonpayable",
      "type": "constructor"
    },
    {
      "anonymous": false,
      "inputs": [
        {
          "indexed": true,
          "internalType": "address",
          "name": "owner",
          "type": "address"
        },
        {
          "indexed": true,
          "internalType": "address",
          "name": "approved",
          "type": "address"
        },
        {
          "indexed": true,
          "internalType": "uint256",
          "name": "tokenId",
          "type": "uint256"
        }
      ],
      "name": "Approval",
      "type": "event"
    },
    {
      "anonymous": false,
      "inputs": [
        {
          "indexed": true,
          "internalType": "address",
          "name": "owner",
          "type": "address"
        },
        {
          "indexed": true,
          "internalType": "address",
          "name": "operator",
          "type": "address"
        },
        {
          "indexed": false,
          "internalType": "bool",
          "name": "approved",
          "type": "bool"
        }
      ],
      "name": "ApprovalForAll",
      "type": "event"
    },
    {
      "anonymous": false,
      "inputs": [
        {
          "indexed": true,
          "internalType": "address",
          "name": "from",
          "type": "address"
        },
        {
          "indexed": true,
          "internalType": "address",
          "name": "to",
          "type": "address"
        },
        {
          "indexed": true,
          "internalType": "uint256",
          "name": "tokenId",
          "type": "uint256"
        }
      ],
      "name": "Transfer",
      "type": "event"
    },
    {
      "inputs": [
        {
          "internalType": "address",
          "name": "to",
          "type": "address"
        },
        {
          "internalType": "uint256",
          "name": "tokenId",
          "type": "uint256"
        }
      ],
      "name": "approve",
      "outputs": [],
      "stateMutability": "nonpayable",
      "type": "function"
    },
    {
      "inputs": [
        {
          "internalType": "address",
          "name": "owner",
          "type": "address"
        }
      ],
      "name": "balanceOf",
      "outputs": [
        {
          "internalType": "uint256",
          "name": "",
          "type": "uint256"
        }
      ],
      "stateMutability": "view",
      "type": "function"
    },
    {
      "inputs": [],
      "name": "contractAddress",
      "outputs": [
        {
          "internalType": "address",
          "name": "",
          "type": "address"
        }
      ],
      "stateMutability": "view",
      "type": "function"
    },
    {
      "inputs": [
        {
          "internalType": "uint256",
          "name": "tokenId",
          "type": "uint256"
        }
      ],
      "name": "getApproved",
      "outputs": [
        {
          "internalType": "address",
          "name": "",
          "type": "address"
        }
      ],
      "stateMutability": "view",
      "type": "function"
    },
    {
      "inputs": [
        {
          "internalType": "address",
          "name": "owner",
          "type": "address"
        },
        {
          "internalType": "address",
          "name": "operator",
          "type": "address"
        }
      ],
      "name": "isApprovedForAll",
      "outputs": [
        {
          "internalType": "bool",
          "name": "",
          "type": "bool"
        }
      ],
      "stateMutability": "view",
      "type": "function"
    },
    {
      "inputs": [
        {
          "internalType": "string",
          "name": "tokenURI",
          "type": "string"
        }
      ],
      "name": "mintToken",
      "outputs": [
        {
          "internalType": "uint256",
          "name": "",
          "type": "uint256"
        }
      ],
      "stateMutability": "nonpayable",
      "type": "function"
    },
    {
      "inputs": [],
      "name": "name",
      "outputs": [
        {
          "internalType": "string",
          "name": "",
          "type": "string"
        }
      ],
      "stateMutability": "view",
      "type": "function"
    },
    {
      "inputs": [
        {
          "internalType": "uint256",
          "name": "tokenId",
          "type": "uint256"
        }
      ],
      "name": "ownerOf",
      "outputs": [
        {
          "internalType": "address",
          "name": "",
          "type": "address"
        }
      ],
      "stateMutability": "view",
      "type": "function"
    },
    {
      "inputs": [
        {
          "internalType": "address",
          "name": "from",
          "type": "address"
        },
        {
          "internalType": "address",
          "name": "to",
          "type": "address"
        },
        {
          "internalType": "uint256",
          "name": "tokenId",
          "type": "uint256"
        }
      ],
      "name": "safeTransferFrom",
      "outputs": [],
      "stateMutability": "nonpayable",
      "type": "function"
    },
    {
      "inputs": [
        {
          "internalType": "address",
          "name": "from",
          "type": "address"
        },
        {
          "internalType": "address",
          "name": "to",
          "type": "address"
        },
        {
          "internalType": "uint256",
          "name": "tokenId",
          "type": "uint256"
        },
        {
          "internalType": "bytes",
          "name": "_data",
          "type": "bytes"
        }
      ],
      "name": "safeTransferFrom",
      "outputs": [],
      "stateMutability": "nonpayable",
      "type": "function"
    },
    {
      "inputs": [
        {
          "internalType": "address",
          "name": "operator",
          "type": "address"
        },
        {
          "internalType": "bool",
          "name": "approved",
          "type": "bool"
        }
      ],
      "name": "setApprovalForAll",
      "outputs": [],
      "stateMutability": "nonpayable",
      "type": "function"
    },
    {
      "inputs": [
        {
          "internalType": "bytes4",
          "name": "interfaceId",
          "type": "bytes4"
        }
      ],
      "name": "supportsInterface",
      "outputs": [
        {
          "internalType": "bool",
          "name": "",
          "type": "bool"
        }
      ],
      "stateMutability": "view",
      "type": "function"
    },
    {
      "inputs": [],
      "name": "symbol",
      "outputs": [
        {
          "internalType": "string",
          "name": "",
          "type": "string"
        }
      ],
      "stateMutability": "view",
      "type": "function"
    },
    {
      "inputs": [
        {
          "internalType": "uint256",
          "name": "tokenId",
          "type": "uint256"
        }
      ],
      "name": "tokenURI",
      "outputs": [
        {
          "internalType": "string",
          "name": "",
          "type": "string"
        }
      ],
      "stateMutability": "view",
      "type": "function"
    },
    {
      "inputs": [
        {
          "internalType": "address",
          "name": "from",
          "type": "address"
        },
        {
          "internalType": "address",
          "name": "to",
          "type": "address"
        },
        {
          "internalType": "uint256",
          "name": "tokenId",
          "type": "uint256"
        }
      ],
      "name": "transferFrom",
      "outputs": [],
      "stateMutability": "nonpayable",
      "type": "function"
    }
  ],
  "bytecode": "0x60806040523480156200001157600080fd5b5060405162002eaf38038062002eaf833981810160405281019062000037919062000239565b6040518060400160405280601681526020017f4d75736963566964656f734d61726b6574706c616365000000000000000000008152506040518060400160405280600381526020017f4d564d00000000000000000000000000000000000000000000000000000000008152508160009080519060200190620000bb9291906200011f565b508060019080519060200190620000d49291906200011f565b50505080600960006101000a81548173ffffffffffffffffffffffffffffffffffffffff021916908373ffffffffffffffffffffffffffffffffffffffff16021790555050620002d0565b8280546200012d906200029a565b90600052602060002090601f0160209004810192826200015157600085556200019d565b82601f106200016c57805160ff19168380011785556200019d565b828001600101855582156200019d579182015b828111156200019c5782518255916020019190600101906200017f565b5b509050620001ac9190620001b0565b5090565b5b80821115620001cb576000816000905550600101620001b1565b5090565b600080fd5b600073ffffffffffffffffffffffffffffffffffffffff82169050919050565b60006200020182620001d4565b9050919050565b6200021381620001f4565b81146200021f57600080fd5b50565b600081519050620002338162000208565b92915050565b600060208284031215620002525762000251620001cf565b5b6000620002628482850162000222565b91505092915050565b7f4e487b7100000000000000000000000000000000000000000000000000000000600052602260045260246000fd5b60006002820490506001821680620002b357607f821691505b60208210811415620002ca57620002c96200026b565b5b50919050565b612bcf80620002e06000396000f3fe608060405234801561001057600080fd5b50600436106100f55760003560e01c80636352211e11610097578063b88d4fde11610066578063b88d4fde14610296578063c87b56dd146102b2578063e985e9c5146102e2578063f6b4dfb414610312576100f5565b80636352211e146101fc57806370a082311461022c57806395d89b411461025c578063a22cb4651461027a576100f5565b8063095ea7b3116100d3578063095ea7b31461017857806323b872dd1461019457806333eba49a146101b057806342842e0e146101e0576100f5565b806301ffc9a7146100fa57806306fdde031461012a578063081812fc14610148575b600080fd5b610114600480360381019061010f9190611944565b610330565b604051610121919061198c565b60405180910390f35b610132610412565b60405161013f9190611a40565b60405180910390f35b610162600480360381019061015d9190611a98565b6104a4565b60405161016f9190611b06565b60405180910390f35b610192600480360381019061018d9190611b4d565b610529565b005b6101ae60048036038101906101a99190611b8d565b610641565b005b6101ca60048036038101906101c59190611d15565b6106a1565b6040516101d79190611d6d565b60405180910390f35b6101fa60048036038101906101f59190611b8d565b6106d8565b005b61021660048036038101906102119190611a98565b6106f8565b6040516102239190611b06565b60405180910390f35b61024660048036038101906102419190611d88565b6107aa565b6040516102539190611d6d565b60405180910390f35b610264610862565b6040516102719190611a40565b60405180910390f35b610294600480360381019061028f9190611de1565b6108f4565b005b6102b060048036038101906102ab9190611ec2565b610a75565b005b6102cc60048036038101906102c79190611a98565b610ad7565b6040516102d99190611a40565b60405180910390f35b6102fc60048036038101906102f79190611f45565b610c29565b604051610309919061198c565b60405180910390f35b61031a610cbd565b6040516103279190611b06565b60405180910390f35b60007f80ac58cd000000000000000000000000000000000000000000000000000000007bffffffffffffffffffffffffffffffffffffffffffffffffffffffff1916827bffffffffffffffffffffffffffffffffffffffffffffffffffffffff191614806103fb57507f5b5e139f000000000000000000000000000000000000000000000000000000007bffffffffffffffffffffffffffffffffffffffffffffffffffffffff1916827bffffffffffffffffffffffffffffffffffffffffffffffffffffffff1916145b8061040b575061040a82610ce3565b5b9050919050565b60606000805461042190611fb4565b80601f016020809104026020016040519081016040528092919081815260200182805461044d90611fb4565b801561049a5780601f1061046f5761010080835404028352916020019161049a565b820191906000526020600020905b81548152906001019060200180831161047d57829003601f168201915b5050505050905090565b60006104af82610d4d565b6104ee576040517f08c379a00000000000000000000000000000000000000000000000000000000081526004016104e590612058565b60405180910390fd5b6004600083815260200190815260200160002060009054906101000a900473ffffffffffffffffffffffffffffffffffffffff169050919050565b6000610534826106f8565b90508073ffffffffffffffffffffffffffffffffffffffff168373ffffffffffffffffffffffffffffffffffffffff1614156105a5576040517f08c379a000000000000000000000000000000000000000000000000000000000815260040161059c906120ea565b60405180910390fd5b8073ffffffffffffffffffffffffffffffffffffffff166105c4610db9565b73ffffffffffffffffffffffffffffffffffffffff1614806105f357506105f2816105ed610db9565b610c29565b5b610632576040517f08c379a00000000000000000000000000000000000000000000000000000000081526004016106299061217c565b60405180910390fd5b61063c8383610dc1565b505050565b61065261064c610db9565b82610e7a565b610691576040517f08c379a00000000000000000000000000000000000000000000000000000000081526004016106889061220e565b60405180910390fd5b61069c838383610f58565b505050565b60006106ad60076111b4565b60006106b960076111ca565b90506106c533826111d8565b6106cf81846113a6565b80915050919050565b6106f383838360405180602001604052806000815250610a75565b505050565b6000806002600084815260200190815260200160002060009054906101000a900473ffffffffffffffffffffffffffffffffffffffff169050600073ffffffffffffffffffffffffffffffffffffffff168173ffffffffffffffffffffffffffffffffffffffff1614156107a1576040517f08c379a0000000000000000000000000000000000000000000000000000000008152600401610798906122a0565b60405180910390fd5b80915050919050565b60008073ffffffffffffffffffffffffffffffffffffffff168273ffffffffffffffffffffffffffffffffffffffff16141561081b576040517f08c379a000000000000000000000000000000000000000000000000000000000815260040161081290612332565b60405180910390fd5b600360008373ffffffffffffffffffffffffffffffffffffffff1673ffffffffffffffffffffffffffffffffffffffff168152602001908152602001600020549050919050565b60606001805461087190611fb4565b80601f016020809104026020016040519081016040528092919081815260200182805461089d90611fb4565b80156108ea5780601f106108bf576101008083540402835291602001916108ea565b820191906000526020600020905b8154815290600101906020018083116108cd57829003601f168201915b5050505050905090565b6108fc610db9565b73ffffffffffffffffffffffffffffffffffffffff168273ffffffffffffffffffffffffffffffffffffffff16141561096a576040517f08c379a00000000000000000000000000000000000000000000000000000000081526004016109619061239e565b60405180910390fd5b8060056000610977610db9565b73ffffffffffffffffffffffffffffffffffffffff1673ffffffffffffffffffffffffffffffffffffffff16815260200190815260200160002060008473ffffffffffffffffffffffffffffffffffffffff1673ffffffffffffffffffffffffffffffffffffffff16815260200190815260200160002060006101000a81548160ff0219169083151502179055508173ffffffffffffffffffffffffffffffffffffffff16610a24610db9565b73ffffffffffffffffffffffffffffffffffffffff167f17307eab39ab6107e8899845ad3d59bd9653f200f220920489ca2b5937696c3183604051610a69919061198c565b60405180910390a35050565b610a86610a80610db9565b83610e7a565b610ac5576040517f08c379a0000000000000000000000000000000000000000000000000000000008152600401610abc9061220e565b60405180910390fd5b610ad18484848461141a565b50505050565b6060610ae282610d4d565b610b21576040517f08c379a0000000000000000000000000000000000000000000000000000000008152600401610b1890612430565b60405180910390fd5b6000600660008481526020019081526020016000208054610b4190611fb4565b80601f0160208091040260200160405190810160405280929190818152602001828054610b6d90611fb4565b8015610bba5780601f10610b8f57610100808354040283529160200191610bba565b820191906000526020600020905b815481529060010190602001808311610b9d57829003601f168201915b505050505090506000610bcb611476565b9050600081511415610be1578192505050610c24565b600082511115610c16578082604051602001610bfe92919061248c565b60405160208183030381529060405292505050610c24565b610c1f8461148d565b925050505b919050565b6000600560008473ffffffffffffffffffffffffffffffffffffffff1673ffffffffffffffffffffffffffffffffffffffff16815260200190815260200160002060008373ffffffffffffffffffffffffffffffffffffffff1673ffffffffffffffffffffffffffffffffffffffff16815260200190815260200160002060009054906101000a900460ff16905092915050565b600960009054906101000a900473ffffffffffffffffffffffffffffffffffffffff1681565b60007f01ffc9a7000000000000000000000000000000000000000000000000000000007bffffffffffffffffffffffffffffffffffffffffffffffffffffffff1916827bffffffffffffffffffffffffffffffffffffffffffffffffffffffff1916149050919050565b60008073ffffffffffffffffffffffffffffffffffffffff166002600084815260200190815260200160002060009054906101000a900473ffffffffffffffffffffffffffffffffffffffff1673ffffffffffffffffffffffffffffffffffffffff1614159050919050565b600033905090565b816004600083815260200190815260200160002060006101000a81548173ffffffffffffffffffffffffffffffffffffffff021916908373ffffffffffffffffffffffffffffffffffffffff160217905550808273ffffffffffffffffffffffffffffffffffffffff16610e34836106f8565b73ffffffffffffffffffffffffffffffffffffffff167f8c5be1e5ebec7d5bd14f71427d1e84f3dd0314c0f7b2291e5b200ac8c7c3b92560405160405180910390a45050565b6000610e8582610d4d565b610ec4576040517f08c379a0000000000000000000000000000000000000000000000000000000008152600401610ebb90612522565b60405180910390fd5b6000610ecf836106f8565b90508073ffffffffffffffffffffffffffffffffffffffff168473ffffffffffffffffffffffffffffffffffffffff161480610f3e57508373ffffffffffffffffffffffffffffffffffffffff16610f26846104a4565b73ffffffffffffffffffffffffffffffffffffffff16145b80610f4f5750610f4e8185610c29565b5b91505092915050565b8273ffffffffffffffffffffffffffffffffffffffff16610f78826106f8565b73ffffffffffffffffffffffffffffffffffffffff1614610fce576040517f08c379a0000000000000000000000000000000000000000000000000000000008152600401610fc5906125b4565b60405180910390fd5b600073ffffffffffffffffffffffffffffffffffffffff168273ffffffffffffffffffffffffffffffffffffffff16141561103e576040517f08c379a000000000000000000000000000000000000000000000000000000000815260040161103590612646565b60405180910390fd5b611049838383611534565b611054600082610dc1565b6001600360008573ffffffffffffffffffffffffffffffffffffffff1673ffffffffffffffffffffffffffffffffffffffff16815260200190815260200160002060008282546110a49190612695565b925050819055506001600360008473ffffffffffffffffffffffffffffffffffffffff1673ffffffffffffffffffffffffffffffffffffffff16815260200190815260200160002060008282546110fb91906126c9565b92505081905550816002600083815260200190815260200160002060006101000a81548173ffffffffffffffffffffffffffffffffffffffff021916908373ffffffffffffffffffffffffffffffffffffffff160217905550808273ffffffffffffffffffffffffffffffffffffffff168473ffffffffffffffffffffffffffffffffffffffff167fddf252ad1be2c89b69c2b068fc378daa952ba7f163c4a11628f55a4df523b3ef60405160405180910390a4505050565b6001816000016000828254019250508190555050565b600081600001549050919050565b600073ffffffffffffffffffffffffffffffffffffffff168273ffffffffffffffffffffffffffffffffffffffff161415611248576040517f08c379a000000000000000000000000000000000000000000000000000000000815260040161123f9061276b565b60405180910390fd5b61125181610d4d565b15611291576040517f08c379a0000000000000000000000000000000000000000000000000000000008152600401611288906127d7565b60405180910390fd5b61129d60008383611534565b6001600360008473ffffffffffffffffffffffffffffffffffffffff1673ffffffffffffffffffffffffffffffffffffffff16815260200190815260200160002060008282546112ed91906126c9565b92505081905550816002600083815260200190815260200160002060006101000a81548173ffffffffffffffffffffffffffffffffffffffff021916908373ffffffffffffffffffffffffffffffffffffffff160217905550808273ffffffffffffffffffffffffffffffffffffffff16600073ffffffffffffffffffffffffffffffffffffffff167fddf252ad1be2c89b69c2b068fc378daa952ba7f163c4a11628f55a4df523b3ef60405160405180910390a45050565b6113af82610d4d565b6113ee576040517f08c379a00000000000000000000000000000000000000000000000000000000081526004016113e590612869565b60405180910390fd5b80600660008481526020019081526020016000209080519060200190611415929190611835565b505050565b611425848484610f58565b61143184848484611539565b611470576040517f08c379a0000000000000000000000000000000000000000000000000000000008152600401611467906128fb565b60405180910390fd5b50505050565b606060405180602001604052806000815250905090565b606061149882610d4d565b6114d7576040517f08c379a00000000000000000000000000000000000000000000000000000000081526004016114ce9061298d565b60405180910390fd5b60006114e1611476565b90506000815111611501576040518060200160405280600081525061152c565b8061150b846116c1565b60405160200161151c92919061248c565b6040516020818303038152906040525b915050919050565b505050565b600061155a8473ffffffffffffffffffffffffffffffffffffffff16611822565b156116b4578373ffffffffffffffffffffffffffffffffffffffff1663150b7a02611583610db9565b8786866040518563ffffffff1660e01b81526004016115a59493929190612a02565b6020604051808303816000875af19250505080156115e157506040513d601f19601f820116820180604052508101906115de9190612a63565b60015b611664573d8060008114611611576040519150601f19603f3d011682016040523d82523d6000602084013e611616565b606091505b5060008151141561165c576040517f08c379a0000000000000000000000000000000000000000000000000000000008152600401611653906128fb565b60405180910390fd5b805181602001fd5b63150b7a0260e01b7bffffffffffffffffffffffffffffffffffffffffffffffffffffffff1916817bffffffffffffffffffffffffffffffffffffffffffffffffffffffff1916149150506116b9565b600190505b949350505050565b60606000821415611709576040518060400160405280600181526020017f3000000000000000000000000000000000000000000000000000000000000000815250905061181d565b600082905060005b6000821461173b57808061172490612a90565b915050600a826117349190612b08565b9150611711565b60008167ffffffffffffffff81111561175757611756611bea565b5b6040519080825280601f01601f1916602001820160405280156117895781602001600182028036833780820191505090505b5090505b60008514611816576001826117a29190612695565b9150600a856117b19190612b39565b60306117bd91906126c9565b60f81b8183815181106117d3576117d2612b6a565b5b60200101907effffffffffffffffffffffffffffffffffffffffffffffffffffffffffffff1916908160001a905350600a8561180f9190612b08565b945061178d565b8093505050505b919050565b600080823b905060008111915050919050565b82805461184190611fb4565b90600052602060002090601f01602090048101928261186357600085556118aa565b82601f1061187c57805160ff19168380011785556118aa565b828001600101855582156118aa579182015b828111156118a957825182559160200191906001019061188e565b5b5090506118b791906118bb565b5090565b5b808211156118d45760008160009055506001016118bc565b5090565b6000604051905090565b600080fd5b600080fd5b60007fffffffff0000000000000000000000000000000000000000000000000000000082169050919050565b611921816118ec565b811461192c57600080fd5b50565b60008135905061193e81611918565b92915050565b60006020828403121561195a576119596118e2565b5b60006119688482850161192f565b91505092915050565b60008115159050919050565b61198681611971565b82525050565b60006020820190506119a1600083018461197d565b92915050565b600081519050919050565b600082825260208201905092915050565b60005b838110156119e15780820151818401526020810190506119c6565b838111156119f0576000848401525b50505050565b6000601f19601f8301169050919050565b6000611a12826119a7565b611a1c81856119b2565b9350611a2c8185602086016119c3565b611a35816119f6565b840191505092915050565b60006020820190508181036000830152611a5a8184611a07565b905092915050565b6000819050919050565b611a7581611a62565b8114611a8057600080fd5b50565b600081359050611a9281611a6c565b92915050565b600060208284031215611aae57611aad6118e2565b5b6000611abc84828501611a83565b91505092915050565b600073ffffffffffffffffffffffffffffffffffffffff82169050919050565b6000611af082611ac5565b9050919050565b611b0081611ae5565b82525050565b6000602082019050611b1b6000830184611af7565b92915050565b611b2a81611ae5565b8114611b3557600080fd5b50565b600081359050611b4781611b21565b92915050565b60008060408385031215611b6457611b636118e2565b5b6000611b7285828601611b38565b9250506020611b8385828601611a83565b9150509250929050565b600080600060608486031215611ba657611ba56118e2565b5b6000611bb486828701611b38565b9350506020611bc586828701611b38565b9250506040611bd686828701611a83565b9150509250925092565b600080fd5b600080fd5b7f4e487b7100000000000000000000000000000000000000000000000000000000600052604160045260246000fd5b611c22826119f6565b810181811067ffffffffffffffff82111715611c4157611c40611bea565b5b80604052505050565b6000611c546118d8565b9050611c608282611c19565b919050565b600067ffffffffffffffff821115611c8057611c7f611bea565b5b611c89826119f6565b9050602081019050919050565b82818337600083830152505050565b6000611cb8611cb384611c65565b611c4a565b905082815260208101848484011115611cd457611cd3611be5565b5b611cdf848285611c96565b509392505050565b600082601f830112611cfc57611cfb611be0565b5b8135611d0c848260208601611ca5565b91505092915050565b600060208284031215611d2b57611d2a6118e2565b5b600082013567ffffffffffffffff811115611d4957611d486118e7565b5b611d5584828501611ce7565b91505092915050565b611d6781611a62565b82525050565b6000602082019050611d826000830184611d5e565b92915050565b600060208284031215611d9e57611d9d6118e2565b5b6000611dac84828501611b38565b91505092915050565b611dbe81611971565b8114611dc957600080fd5b50565b600081359050611ddb81611db5565b92915050565b60008060408385031215611df857611df76118e2565b5b6000611e0685828601611b38565b9250506020611e1785828601611dcc565b9150509250929050565b600067ffffffffffffffff821115611e3c57611e3b611bea565b5b611e45826119f6565b9050602081019050919050565b6000611e65611e6084611e21565b611c4a565b905082815260208101848484011115611e8157611e80611be5565b5b611e8c848285611c96565b509392505050565b600082601f830112611ea957611ea8611be0565b5b8135611eb9848260208601611e52565b91505092915050565b60008060008060808587031215611edc57611edb6118e2565b5b6000611eea87828801611b38565b9450506020611efb87828801611b38565b9350506040611f0c87828801611a83565b925050606085013567ffffffffffffffff811115611f2d57611f2c6118e7565b5b611f3987828801611e94565b91505092959194509250565b60008060408385031215611f5c57611f5b6118e2565b5b6000611f6a85828601611b38565b9250506020611f7b85828601611b38565b9150509250929050565b7f4e487b7100000000000000000000000000000000000000000000000000000000600052602260045260246000fd5b60006002820490506001821680611fcc57607f821691505b60208210811415611fe057611fdf611f85565b5b50919050565b7f4552433732313a20617070726f76656420717565727920666f72206e6f6e657860008201527f697374656e7420746f6b656e0000000000000000000000000000000000000000602082015250565b6000612042602c836119b2565b915061204d82611fe6565b604082019050919050565b6000602082019050818103600083015261207181612035565b9050919050565b7f4552433732313a20617070726f76616c20746f2063757272656e74206f776e6560008201527f7200000000000000000000000000000000000000000000000000000000000000602082015250565b60006120d46021836119b2565b91506120df82612078565b604082019050919050565b60006020820190508181036000830152612103816120c7565b9050919050565b7f4552433732313a20617070726f76652063616c6c6572206973206e6f74206f7760008201527f6e6572206e6f7220617070726f76656420666f7220616c6c0000000000000000602082015250565b60006121666038836119b2565b91506121718261210a565b604082019050919050565b6000602082019050818103600083015261219581612159565b9050919050565b7f4552433732313a207472616e736665722063616c6c6572206973206e6f74206f60008201527f776e6572206e6f7220617070726f766564000000000000000000000000000000602082015250565b60006121f86031836119b2565b91506122038261219c565b604082019050919050565b60006020820190508181036000830152612227816121eb565b9050919050565b7f4552433732313a206f776e657220717565727920666f72206e6f6e657869737460008201527f656e7420746f6b656e0000000000000000000000000000000000000000000000602082015250565b600061228a6029836119b2565b91506122958261222e565b604082019050919050565b600060208201905081810360008301526122b98161227d565b9050919050565b7f4552433732313a2062616c616e636520717565727920666f7220746865207a6560008201527f726f206164647265737300000000000000000000000000000000000000000000602082015250565b600061231c602a836119b2565b9150612327826122c0565b604082019050919050565b6000602082019050818103600083015261234b8161230f565b9050919050565b7f4552433732313a20617070726f766520746f2063616c6c657200000000000000600082015250565b60006123886019836119b2565b915061239382612352565b602082019050919050565b600060208201905081810360008301526123b78161237b565b9050919050565b7f45524337323155524953746f726167653a2055524920717565727920666f722060008201527f6e6f6e6578697374656e7420746f6b656e000000000000000000000000000000602082015250565b600061241a6031836119b2565b9150612425826123be565b604082019050919050565b600060208201905081810360008301526124498161240d565b9050919050565b600081905092915050565b6000612466826119a7565b6124708185612450565b93506124808185602086016119c3565b80840191505092915050565b6000612498828561245b565b91506124a4828461245b565b91508190509392505050565b7f4552433732313a206f70657261746f7220717565727920666f72206e6f6e657860008201527f697374656e7420746f6b656e0000000000000000000000000000000000000000602082015250565b600061250c602c836119b2565b9150612517826124b0565b604082019050919050565b6000602082019050818103600083015261253b816124ff565b9050919050565b7f4552433732313a207472616e73666572206f6620746f6b656e2074686174206960008201527f73206e6f74206f776e0000000000000000000000000000000000000000000000602082015250565b600061259e6029836119b2565b91506125a982612542565b604082019050919050565b600060208201905081810360008301526125cd81612591565b9050919050565b7f4552433732313a207472616e7366657220746f20746865207a65726f2061646460008201527f7265737300000000000000000000000000000000000000000000000000000000602082015250565b60006126306024836119b2565b915061263b826125d4565b604082019050919050565b6000602082019050818103600083015261265f81612623565b9050919050565b7f4e487b7100000000000000000000000000000000000000000000000000000000600052601160045260246000fd5b60006126a082611a62565b91506126ab83611a62565b9250828210156126be576126bd612666565b5b828203905092915050565b60006126d482611a62565b91506126df83611a62565b9250827fffffffffffffffffffffffffffffffffffffffffffffffffffffffffffffffff0382111561271457612713612666565b5b828201905092915050565b7f4552433732313a206d696e7420746f20746865207a65726f2061646472657373600082015250565b60006127556020836119b2565b91506127608261271f565b602082019050919050565b6000602082019050818103600083015261278481612748565b9050919050565b7f4552433732313a20746f6b656e20616c7265616479206d696e74656400000000600082015250565b60006127c1601c836119b2565b91506127cc8261278b565b602082019050919050565b600060208201905081810360008301526127f0816127b4565b9050919050565b7f45524337323155524953746f726167653a2055524920736574206f66206e6f6e60008201527f6578697374656e7420746f6b656e000000000000000000000000000000000000602082015250565b6000612853602e836119b2565b915061285e826127f7565b604082019050919050565b6000602082019050818103600083015261288281612846565b9050919050565b7f4552433732313a207472616e7366657220746f206e6f6e20455243373231526560008201527f63656976657220696d706c656d656e7465720000000000000000000000000000602082015250565b60006128e56032836119b2565b91506128f082612889565b604082019050919050565b60006020820190508181036000830152612914816128d8565b9050919050565b7f4552433732314d657461646174613a2055524920717565727920666f72206e6f60008201527f6e6578697374656e7420746f6b656e0000000000000000000000000000000000602082015250565b6000612977602f836119b2565b91506129828261291b565b604082019050919050565b600060208201905081810360008301526129a68161296a565b9050919050565b600081519050919050565b600082825260208201905092915050565b60006129d4826129ad565b6129de81856129b8565b93506129ee8185602086016119c3565b6129f7816119f6565b840191505092915050565b6000608082019050612a176000830187611af7565b612a246020830186611af7565b612a316040830185611d5e565b8181036060830152612a4381846129c9565b905095945050505050565b600081519050612a5d81611918565b92915050565b600060208284031215612a7957612a786118e2565b5b6000612a8784828501612a4e565b91505092915050565b6000612a9b82611a62565b91507fffffffffffffffffffffffffffffffffffffffffffffffffffffffffffffffff821415612ace57612acd612666565b5b600182019050919050565b7f4e487b7100000000000000000000000000000000000000000000000000000000600052601260045260246000fd5b6000612b1382611a62565b9150612b1e83611a62565b925082612b2e57612b2d612ad9565b5b828204905092915050565b6000612b4482611a62565b9150612b4f83611a62565b925082612b5f57612b5e612ad9565b5b828206905092915050565b7f4e487b7100000000000000000000000000000000000000000000000000000000600052603260045260246000fdfea2646970667358221220cd6941eab9fce84082712a3389b87a92e0ce1caf738d66ae3004031a49a7762b64736f6c634300080a0033",
  "linkReferences": {},
  "deployedLinkReferences": {}
}