{
  "_format": "hh-sol-artifact-1",
  "contractName": "NFT",
  "sourceName": "contracts/NFT.sol",
  "abi": [
    {
      "inputs": [
        {
          "internalType": "address",
          "name": "marketplaceAddress",
          "type": "address"
        }
      ],
      "stateMutability": "nonpayable",
      "type": "constructor"
    },
    {
      "anonymous": false,
      "inputs": [
        {
          "indexed": true,
          "internalType": "address",
          "name": "owner",
          "type": "address"
        },
        {
          "indexed": true,
          "internalType": "address",
          "name": "approved",
          "type": "address"
        },
        {
          "indexed": true,
          "internalType": "uint256",
          "name": "tokenId",
          "type": "uint256"
        }
      ],
      "name": "Approval",
      "type": "event"
    },
    {
      "anonymous": false,
      "inputs": [
        {
          "indexed": true,
          "internalType": "address",
          "name": "owner",
          "type": "address"
        },
        {
          "indexed": true,
          "internalType": "address",
          "name": "operator",
          "type": "address"
        },
        {
          "indexed": false,
          "internalType": "bool",
          "name": "approved",
          "type": "bool"
        }
      ],
      "name": "ApprovalForAll",
      "type": "event"
    },
    {
      "anonymous": false,
      "inputs": [
        {
          "indexed": true,
          "internalType": "address",
          "name": "from",
          "type": "address"
        },
        {
          "indexed": true,
          "internalType": "address",
          "name": "to",
          "type": "address"
        },
        {
          "indexed": true,
          "internalType": "uint256",
          "name": "tokenId",
          "type": "uint256"
        }
      ],
      "name": "Transfer",
      "type": "event"
    },
    {
      "inputs": [
        {
          "internalType": "address",
          "name": "to",
          "type": "address"
        },
        {
          "internalType": "uint256",
          "name": "tokenId",
          "type": "uint256"
        }
      ],
      "name": "approve",
      "outputs": [],
      "stateMutability": "nonpayable",
      "type": "function"
    },
    {
      "inputs": [
        {
          "internalType": "address",
          "name": "owner",
          "type": "address"
        }
      ],
      "name": "balanceOf",
      "outputs": [
        {
          "internalType": "uint256",
          "name": "",
          "type": "uint256"
        }
      ],
      "stateMutability": "view",
      "type": "function"
    },
    {
      "inputs": [
        {
          "internalType": "uint256",
          "name": "tokenId",
          "type": "uint256"
        }
      ],
      "name": "getApproved",
      "outputs": [
        {
          "internalType": "address",
          "name": "",
          "type": "address"
        }
      ],
      "stateMutability": "view",
      "type": "function"
    },
    {
      "inputs": [
        {
          "internalType": "address",
          "name": "owner",
          "type": "address"
        },
        {
          "internalType": "address",
          "name": "operator",
          "type": "address"
        }
      ],
      "name": "isApprovedForAll",
      "outputs": [
        {
          "internalType": "bool",
          "name": "",
          "type": "bool"
        }
      ],
      "stateMutability": "view",
      "type": "function"
    },
    {
      "inputs": [
        {
          "internalType": "string",
          "name": "tokenURI",
          "type": "string"
        }
      ],
      "name": "mintToken",
      "outputs": [
        {
          "internalType": "uint256",
          "name": "",
          "type": "uint256"
        }
      ],
      "stateMutability": "nonpayable",
      "type": "function"
    },
    {
      "inputs": [],
      "name": "name",
      "outputs": [
        {
          "internalType": "string",
          "name": "",
          "type": "string"
        }
      ],
      "stateMutability": "view",
      "type": "function"
    },
    {
      "inputs": [
        {
          "internalType": "uint256",
          "name": "tokenId",
          "type": "uint256"
        }
      ],
      "name": "ownerOf",
      "outputs": [
        {
          "internalType": "address",
          "name": "",
          "type": "address"
        }
      ],
      "stateMutability": "view",
      "type": "function"
    },
    {
      "inputs": [
        {
          "internalType": "address",
          "name": "from",
          "type": "address"
        },
        {
          "internalType": "address",
          "name": "to",
          "type": "address"
        },
        {
          "internalType": "uint256",
          "name": "tokenId",
          "type": "uint256"
        }
      ],
      "name": "safeTransferFrom",
      "outputs": [],
      "stateMutability": "nonpayable",
      "type": "function"
    },
    {
      "inputs": [
        {
          "internalType": "address",
          "name": "from",
          "type": "address"
        },
        {
          "internalType": "address",
          "name": "to",
          "type": "address"
        },
        {
          "internalType": "uint256",
          "name": "tokenId",
          "type": "uint256"
        },
        {
          "internalType": "bytes",
          "name": "_data",
          "type": "bytes"
        }
      ],
      "name": "safeTransferFrom",
      "outputs": [],
      "stateMutability": "nonpayable",
      "type": "function"
    },
    {
      "inputs": [
        {
          "internalType": "address",
          "name": "operator",
          "type": "address"
        },
        {
          "internalType": "bool",
          "name": "approved",
          "type": "bool"
        }
      ],
      "name": "setApprovalForAll",
      "outputs": [],
      "stateMutability": "nonpayable",
      "type": "function"
    },
    {
      "inputs": [
        {
          "internalType": "bytes4",
          "name": "interfaceId",
          "type": "bytes4"
        }
      ],
      "name": "supportsInterface",
      "outputs": [
        {
          "internalType": "bool",
          "name": "",
          "type": "bool"
        }
      ],
      "stateMutability": "view",
      "type": "function"
    },
    {
      "inputs": [],
      "name": "symbol",
      "outputs": [
        {
          "internalType": "string",
          "name": "",
          "type": "string"
        }
      ],
      "stateMutability": "view",
      "type": "function"
    },
    {
      "inputs": [
        {
          "internalType": "uint256",
          "name": "tokenId",
          "type": "uint256"
        }
      ],
      "name": "tokenURI",
      "outputs": [
        {
          "internalType": "string",
          "name": "",
          "type": "string"
        }
      ],
      "stateMutability": "view",
      "type": "function"
    },
    {
      "inputs": [
        {
          "internalType": "address",
          "name": "from",
          "type": "address"
        },
        {
          "internalType": "address",
          "name": "to",
          "type": "address"
        },
        {
          "internalType": "uint256",
          "name": "tokenId",
          "type": "uint256"
        }
      ],
      "name": "transferFrom",
      "outputs": [],
      "stateMutability": "nonpayable",
      "type": "function"
    }
  ],
  "bytecode": "0x60806040523480156200001157600080fd5b50604051620018c2380380620018c283398101604081905262000034916200017a565b604080518082018252601681527f4d75736963566964656f734d61726b6574706c616365000000000000000000006020808301918252835180850190945260038452624d564d60e81b9084015281519192916200009491600091620000d4565b508051620000aa906001906020840190620000d4565b5050600980546001600160a01b0319166001600160a01b03939093169290921790915550620001e9565b828054620000e290620001ac565b90600052602060002090601f01602090048101928262000106576000855562000151565b82601f106200012157805160ff191683800117855562000151565b8280016001018555821562000151579182015b828111156200015157825182559160200191906001019062000134565b506200015f92915062000163565b5090565b5b808211156200015f576000815560010162000164565b6000602082840312156200018d57600080fd5b81516001600160a01b0381168114620001a557600080fd5b9392505050565b600181811c90821680620001c157607f821691505b60208210811415620001e357634e487b7160e01b600052602260045260246000fd5b50919050565b6116c980620001f96000396000f3fe608060405234801561001057600080fd5b50600436106100ea5760003560e01c80636352211e1161008c578063a22cb46511610066578063a22cb465146101e1578063b88d4fde146101f4578063c87b56dd14610207578063e985e9c51461021a57600080fd5b80636352211e146101b357806370a08231146101c657806395d89b41146101d957600080fd5b8063095ea7b3116100c8578063095ea7b31461015757806323b872dd1461016c57806333eba49a1461017f57806342842e0e146101a057600080fd5b806301ffc9a7146100ef57806306fdde0314610117578063081812fc1461012c575b600080fd5b6101026100fd36600461117a565b610256565b60405190151581526020015b60405180910390f35b61011f6102a8565b60405161010e91906111ef565b61013f61013a366004611202565b61033a565b6040516001600160a01b03909116815260200161010e565b61016a610165366004611237565b6103c7565b005b61016a61017a366004611261565b6104dd565b61019261018d366004611329565b61050e565b60405190815260200161010e565b61016a6101ae366004611261565b610556565b61013f6101c1366004611202565b610571565b6101926101d4366004611372565b6105e8565b61011f61066f565b61016a6101ef36600461138d565b61067e565b61016a6102023660046113c9565b610743565b61011f610215366004611202565b61077b565b610102610228366004611445565b6001600160a01b03918216600090815260056020908152604080832093909416825291909152205460ff1690565b60006001600160e01b031982166380ac58cd60e01b148061028757506001600160e01b03198216635b5e139f60e01b145b806102a257506301ffc9a760e01b6001600160e01b03198316145b92915050565b6060600080546102b790611478565b80601f01602080910402602001604051908101604052809291908181526020018280546102e390611478565b80156103305780601f1061030557610100808354040283529160200191610330565b820191906000526020600020905b81548152906001019060200180831161031357829003601f168201915b5050505050905090565b6000610345826108f2565b6103ab5760405162461bcd60e51b815260206004820152602c60248201527f4552433732313a20617070726f76656420717565727920666f72206e6f6e657860448201526b34b9ba32b73a103a37b5b2b760a11b60648201526084015b60405180910390fd5b506000908152600460205260409020546001600160a01b031690565b60006103d282610571565b9050806001600160a01b0316836001600160a01b031614156104405760405162461bcd60e51b815260206004820152602160248201527f4552433732313a20617070726f76616c20746f2063757272656e74206f776e656044820152603960f91b60648201526084016103a2565b336001600160a01b038216148061045c575061045c8133610228565b6104ce5760405162461bcd60e51b815260206004820152603860248201527f4552433732313a20617070726f76652063616c6c6572206973206e6f74206f7760448201527f6e6572206e6f7220617070726f76656420666f7220616c6c000000000000000060648201526084016103a2565b6104d8838361090f565b505050565b6104e7338261097d565b6105035760405162461bcd60e51b81526004016103a2906114b3565b6104d8838383610a63565b600061051e600780546001019055565b600061052960075490565b90506105353382610c03565b61053f8184610d36565b6009546102a2906001600160a01b0316600161067e565b6104d883838360405180602001604052806000815250610743565b6000818152600260205260408120546001600160a01b0316806102a25760405162461bcd60e51b815260206004820152602960248201527f4552433732313a206f776e657220717565727920666f72206e6f6e657869737460448201526832b73a103a37b5b2b760b91b60648201526084016103a2565b60006001600160a01b0382166106535760405162461bcd60e51b815260206004820152602a60248201527f4552433732313a2062616c616e636520717565727920666f7220746865207a65604482015269726f206164647265737360b01b60648201526084016103a2565b506001600160a01b031660009081526003602052604090205490565b6060600180546102b790611478565b6001600160a01b0382163314156106d75760405162461bcd60e51b815260206004820152601960248201527f4552433732313a20617070726f766520746f2063616c6c65720000000000000060448201526064016103a2565b3360008181526005602090815260408083206001600160a01b03871680855290835292819020805460ff191686151590811790915590519081529192917f17307eab39ab6107e8899845ad3d59bd9653f200f220920489ca2b5937696c31910160405180910390a35050565b61074d338361097d565b6107695760405162461bcd60e51b81526004016103a2906114b3565b61077584848484610dc1565b50505050565b6060610786826108f2565b6107ec5760405162461bcd60e51b815260206004820152603160248201527f45524337323155524953746f726167653a2055524920717565727920666f72206044820152703737b732bc34b9ba32b73a103a37b5b2b760791b60648201526084016103a2565b6000828152600660205260408120805461080590611478565b80601f016020809104026020016040519081016040528092919081815260200182805461083190611478565b801561087e5780601f106108535761010080835404028352916020019161087e565b820191906000526020600020905b81548152906001019060200180831161086157829003601f168201915b50505050509050600061089c60408051602081019091526000815290565b90508051600014156108af575092915050565b8151156108e15780826040516020016108c9929190611504565b60405160208183030381529060405292505050919050565b6108ea84610df4565b949350505050565b6000908152600260205260409020546001600160a01b0316151590565b600081815260046020526040902080546001600160a01b0319166001600160a01b038416908117909155819061094482610571565b6001600160a01b03167f8c5be1e5ebec7d5bd14f71427d1e84f3dd0314c0f7b2291e5b200ac8c7c3b92560405160405180910390a45050565b6000610988826108f2565b6109e95760405162461bcd60e51b815260206004820152602c60248201527f4552433732313a206f70657261746f7220717565727920666f72206e6f6e657860448201526b34b9ba32b73a103a37b5b2b760a11b60648201526084016103a2565b60006109f483610571565b9050806001600160a01b0316846001600160a01b03161480610a2f5750836001600160a01b0316610a248461033a565b6001600160a01b0316145b806108ea57506001600160a01b0380821660009081526005602090815260408083209388168352929052205460ff166108ea565b826001600160a01b0316610a7682610571565b6001600160a01b031614610ade5760405162461bcd60e51b815260206004820152602960248201527f4552433732313a207472616e73666572206f6620746f6b656e2074686174206960448201526839903737ba1037bbb760b91b60648201526084016103a2565b6001600160a01b038216610b405760405162461bcd60e51b8152602060048201526024808201527f4552433732313a207472616e7366657220746f20746865207a65726f206164646044820152637265737360e01b60648201526084016103a2565b610b4b60008261090f565b6001600160a01b0383166000908152600360205260408120805460019290610b74908490611549565b90915550506001600160a01b0382166000908152600360205260408120805460019290610ba2908490611560565b909155505060008181526002602052604080822080546001600160a01b0319166001600160a01b0386811691821790925591518493918716917fddf252ad1be2c89b69c2b068fc378daa952ba7f163c4a11628f55a4df523b3ef91a4505050565b6001600160a01b038216610c595760405162461bcd60e51b815260206004820181905260248201527f4552433732313a206d696e7420746f20746865207a65726f206164647265737360448201526064016103a2565b610c62816108f2565b15610caf5760405162461bcd60e51b815260206004820152601c60248201527f4552433732313a20746f6b656e20616c7265616479206d696e7465640000000060448201526064016103a2565b6001600160a01b0382166000908152600360205260408120805460019290610cd8908490611560565b909155505060008181526002602052604080822080546001600160a01b0319166001600160a01b03861690811790915590518392907fddf252ad1be2c89b69c2b068fc378daa952ba7f163c4a11628f55a4df523b3ef908290a45050565b610d3f826108f2565b610da25760405162461bcd60e51b815260206004820152602e60248201527f45524337323155524953746f726167653a2055524920736574206f66206e6f6e60448201526d32bc34b9ba32b73a103a37b5b2b760911b60648201526084016103a2565b600082815260066020908152604090912082516104d8928401906110c8565b610dcc848484610a63565b610dd884848484610ecc565b6107755760405162461bcd60e51b81526004016103a290611578565b6060610dff826108f2565b610e635760405162461bcd60e51b815260206004820152602f60248201527f4552433732314d657461646174613a2055524920717565727920666f72206e6f60448201526e3732bc34b9ba32b73a103a37b5b2b760891b60648201526084016103a2565b6000610e7a60408051602081019091526000815290565b90506000815111610e9a5760405180602001604052806000815250610ec5565b80610ea484610fca565b604051602001610eb5929190611504565b6040516020818303038152906040525b9392505050565b60006001600160a01b0384163b15610fbf57604051630a85bd0160e11b81526001600160a01b0385169063150b7a0290610f109033908990889088906004016115ca565b6020604051808303816000875af1925050508015610f4b575060408051601f3d908101601f19168201909252610f4891810190611607565b60015b610fa5573d808015610f79576040519150601f19603f3d011682016040523d82523d6000602084013e610f7e565b606091505b508051610f9d5760405162461bcd60e51b81526004016103a290611578565b805181602001fd5b6001600160e01b031916630a85bd0160e11b1490506108ea565b506001949350505050565b606081610fee5750506040805180820190915260018152600360fc1b602082015290565b8160005b8115611018578061100281611624565b91506110119050600a83611655565b9150610ff2565b60008167ffffffffffffffff8111156110335761103361129d565b6040519080825280601f01601f19166020018201604052801561105d576020820181803683370190505b5090505b84156108ea57611072600183611549565b915061107f600a86611669565b61108a906030611560565b60f81b81838151811061109f5761109f61167d565b60200101906001600160f81b031916908160001a9053506110c1600a86611655565b9450611061565b8280546110d490611478565b90600052602060002090601f0160209004810192826110f6576000855561113c565b82601f1061110f57805160ff191683800117855561113c565b8280016001018555821561113c579182015b8281111561113c578251825591602001919060010190611121565b5061114892915061114c565b5090565b5b80821115611148576000815560010161114d565b6001600160e01b03198116811461117757600080fd5b50565b60006020828403121561118c57600080fd5b8135610ec581611161565b60005b838110156111b257818101518382015260200161119a565b838111156107755750506000910152565b600081518084526111db816020860160208601611197565b601f01601f19169290920160200192915050565b602081526000610ec560208301846111c3565b60006020828403121561121457600080fd5b5035919050565b80356001600160a01b038116811461123257600080fd5b919050565b6000806040838503121561124a57600080fd5b6112538361121b565b946020939093013593505050565b60008060006060848603121561127657600080fd5b61127f8461121b565b925061128d6020850161121b565b9150604084013590509250925092565b634e487b7160e01b600052604160045260246000fd5b600067ffffffffffffffff808411156112ce576112ce61129d565b604051601f8501601f19908116603f011681019082821181831017156112f6576112f661129d565b8160405280935085815286868601111561130f57600080fd5b858560208301376000602087830101525050509392505050565b60006020828403121561133b57600080fd5b813567ffffffffffffffff81111561135257600080fd5b8201601f8101841361136357600080fd5b6108ea848235602084016112b3565b60006020828403121561138457600080fd5b610ec58261121b565b600080604083850312156113a057600080fd5b6113a98361121b565b9150602083013580151581146113be57600080fd5b809150509250929050565b600080600080608085870312156113df57600080fd5b6113e88561121b565b93506113f66020860161121b565b925060408501359150606085013567ffffffffffffffff81111561141957600080fd5b8501601f8101871361142a57600080fd5b611439878235602084016112b3565b91505092959194509250565b6000806040838503121561145857600080fd5b6114618361121b565b915061146f6020840161121b565b90509250929050565b600181811c9082168061148c57607f821691505b602082108114156114ad57634e487b7160e01b600052602260045260246000fd5b50919050565b60208082526031908201527f4552433732313a207472616e736665722063616c6c6572206973206e6f74206f6040820152701ddb995c881b9bdc88185c1c1c9bdd9959607a1b606082015260800190565b60008351611516818460208801611197565b83519083019061152a818360208801611197565b01949350505050565b634e487b7160e01b600052601160045260246000fd5b60008282101561155b5761155b611533565b500390565b6000821982111561157357611573611533565b500190565b60208082526032908201527f4552433732313a207472616e7366657220746f206e6f6e20455243373231526560408201527131b2b4bb32b91034b6b83632b6b2b73a32b960711b606082015260800190565b6001600160a01b03858116825284166020820152604081018390526080606082018190526000906115fd908301846111c3565b9695505050505050565b60006020828403121561161957600080fd5b8151610ec581611161565b600060001982141561163857611638611533565b5060010190565b634e487b7160e01b600052601260045260246000fd5b6000826116645761166461163f565b500490565b6000826116785761167861163f565b500690565b634e487b7160e01b600052603260045260246000fdfea2646970667358221220e02e120126788b8f6816c7bddeeb06263e342361ea88e412947e3fd321ed007e64736f6c634300080a0033",
  "linkReferences": {},
  "deployedLinkReferences": {}
}