{
  "contractName": "MVMarket",
  "abi": [
    {
      "inputs": [],
      "stateMutability": "nonpayable",
      "type": "constructor"
    },
    {
      "anonymous": false,
      "inputs": [
        {
          "indexed": true,
          "internalType": "uint256",
          "name": "itemId",
          "type": "uint256"
        },
        {
          "indexed": true,
          "internalType": "address",
          "name": "nftContract",
          "type": "address"
        },
        {
          "indexed": true,
          "internalType": "uint256",
          "name": "tokenId",
          "type": "uint256"
        },
        {
          "indexed": false,
          "internalType": "address",
          "name": "seller",
          "type": "address"
        },
        {
          "indexed": false,
          "internalType": "address",
          "name": "owner",
          "type": "address"
        },
        {
          "indexed": false,
          "internalType": "uint256",
          "name": "price",
          "type": "uint256"
        },
        {
          "indexed": false,
          "internalType": "bool",
          "name": "sold",
          "type": "bool"
        }
      ],
      "name": "MarketTokenMinted",
      "type": "event"
    },
    {
      "inputs": [],
      "name": "getListingPrice",
      "outputs": [
        {
          "internalType": "uint256",
          "name": "",
          "type": "uint256"
        }
      ],
      "stateMutability": "view",
      "type": "function"
    },
    {
      "inputs": [
        {
          "internalType": "address",
          "name": "nftContract",
          "type": "address"
        },
        {
          "internalType": "uint256",
          "name": "tokenId",
          "type": "uint256"
        },
        {
          "internalType": "uint256",
          "name": "price",
          "type": "uint256"
        }
      ],
      "name": "makeMarketItem",
      "outputs": [],
      "stateMutability": "payable",
      "type": "function"
    },
    {
      "inputs": [
        {
          "internalType": "address",
          "name": "nftContract",
          "type": "address"
        },
        {
          "internalType": "uint256",
          "name": "itemId",
          "type": "uint256"
        }
      ],
      "name": "createMarketSale",
      "outputs": [],
      "stateMutability": "payable",
      "type": "function"
    },
    {
      "inputs": [],
      "name": "getMarketTokens",
      "outputs": [
        {
          "components": [
            {
              "internalType": "uint256",
              "name": "itemId",
              "type": "uint256"
            },
            {
              "internalType": "address",
              "name": "nftContract",
              "type": "address"
            },
            {
              "internalType": "uint256",
              "name": "tokenId",
              "type": "uint256"
            },
            {
              "internalType": "address payable",
              "name": "seller",
              "type": "address"
            },
            {
              "internalType": "address payable",
              "name": "owner",
              "type": "address"
            },
            {
              "internalType": "uint256",
              "name": "price",
              "type": "uint256"
            },
            {
              "internalType": "bool",
              "name": "sold",
              "type": "bool"
            }
          ],
          "internalType": "struct MVMarket.MarketToken[]",
          "name": "",
          "type": "tuple[]"
        }
      ],
      "stateMutability": "view",
      "type": "function"
    },
    {
      "inputs": [],
      "name": "getMyNFTs",
      "outputs": [
        {
          "components": [
            {
              "internalType": "uint256",
              "name": "itemId",
              "type": "uint256"
            },
            {
              "internalType": "address",
              "name": "nftContract",
              "type": "address"
            },
            {
              "internalType": "uint256",
              "name": "tokenId",
              "type": "uint256"
            },
            {
              "internalType": "address payable",
              "name": "seller",
              "type": "address"
            },
            {
              "internalType": "address payable",
              "name": "owner",
              "type": "address"
            },
            {
              "internalType": "uint256",
              "name": "price",
              "type": "uint256"
            },
            {
              "internalType": "bool",
              "name": "sold",
              "type": "bool"
            }
          ],
          "internalType": "struct MVMarket.MarketToken[]",
          "name": "",
          "type": "tuple[]"
        }
      ],
      "stateMutability": "view",
      "type": "function"
    },
    {
      "inputs": [],
      "name": "getItemsCreated",
      "outputs": [
        {
          "components": [
            {
              "internalType": "uint256",
              "name": "itemId",
              "type": "uint256"
            },
            {
              "internalType": "address",
              "name": "nftContract",
              "type": "address"
            },
            {
              "internalType": "uint256",
              "name": "tokenId",
              "type": "uint256"
            },
            {
              "internalType": "address payable",
              "name": "seller",
              "type": "address"
            },
            {
              "internalType": "address payable",
              "name": "owner",
              "type": "address"
            },
            {
              "internalType": "uint256",
              "name": "price",
              "type": "uint256"
            },
            {
              "internalType": "bool",
              "name": "sold",
              "type": "bool"
            }
          ],
          "internalType": "struct MVMarket.MarketToken[]",
          "name": "",
          "type": "tuple[]"
        }
      ],
      "stateMutability": "view",
      "type": "function"
    }
  ],
  "bytecode": "0x6080604052670de0b6b3a764000060045534801561001c57600080fd5b50600160008190555033600360006101000a81548173ffffffffffffffffffffffffffffffffffffffff021916908373ffffffffffffffffffffffffffffffffffffffff160217905550611961806100756000396000f3fe6080604052600436106100555760003560e01c806312e855851461005a57806342a0dd3414610085578063629cb2e4146100b05780637a060f56146100db578063c23b139e146100f7578063e8b08f0414610113575b600080fd5b34801561006657600080fd5b5061006f61013e565b60405161007c919061164c565b60405180910390f35b34801561009157600080fd5b5061009a610148565b6040516100a791906115aa565b60405180910390f35b3480156100bc57600080fd5b506100c561045e565b6040516100d291906115aa565b60405180910390f35b6100f560048036038101906100f091906112e6565b61080e565b005b610111600480360381019061010c91906112aa565b610b72565b005b34801561011f57600080fd5b50610128610e2b565b60405161013591906115aa565b60405180910390f35b6000600454905090565b6060600061015660016111db565b9050600061016460026111db565b61016e60016111db565b6101789190611707565b90506000808267ffffffffffffffff8111156101bd577f4e487b7100000000000000000000000000000000000000000000000000000000600052604160045260246000fd5b6040519080825280602002602001820160405280156101f657816020015b6101e36111ff565b8152602001906001900390816101db5790505b50905060005b8481101561045357600073ffffffffffffffffffffffffffffffffffffffff166005600060018461022d91906116b1565b815260200190815260200160002060040160009054906101000a900473ffffffffffffffffffffffffffffffffffffffff1673ffffffffffffffffffffffffffffffffffffffff16141561044057600060018261028a91906116b1565b90506000600560008381526020019081526020016000209050806040518060e0016040529081600082015481526020016001820160009054906101000a900473ffffffffffffffffffffffffffffffffffffffff1673ffffffffffffffffffffffffffffffffffffffff1673ffffffffffffffffffffffffffffffffffffffff168152602001600282015481526020016003820160009054906101000a900473ffffffffffffffffffffffffffffffffffffffff1673ffffffffffffffffffffffffffffffffffffffff1673ffffffffffffffffffffffffffffffffffffffff1681526020016004820160009054906101000a900473ffffffffffffffffffffffffffffffffffffffff1673ffffffffffffffffffffffffffffffffffffffff1673ffffffffffffffffffffffffffffffffffffffff168152602001600582015481526020016006820160009054906101000a900460ff161515151581525050848681518110610423577f4e487b7100000000000000000000000000000000000000000000000000000000600052603260045260246000fd5b602002602001018190525060018561043b91906116b1565b945050505b808061044b90611795565b9150506101fc565b508094505050505090565b6060600061046c60016111db565b905060008060005b83811015610515573373ffffffffffffffffffffffffffffffffffffffff16600560006001846104a491906116b1565b815260200190815260200160002060030160009054906101000a900473ffffffffffffffffffffffffffffffffffffffff1673ffffffffffffffffffffffffffffffffffffffff161415610502576001836104ff91906116b1565b92505b808061050d90611795565b915050610474565b5060008267ffffffffffffffff811115610558577f4e487b7100000000000000000000000000000000000000000000000000000000600052604160045260246000fd5b60405190808252806020026020018201604052801561059157816020015b61057e6111ff565b8152602001906001900390816105765790505b50905060005b84811015610803573373ffffffffffffffffffffffffffffffffffffffff16600560006001846105c791906116b1565b815260200190815260200160002060040160009054906101000a900473ffffffffffffffffffffffffffffffffffffffff1673ffffffffffffffffffffffffffffffffffffffff1614156107f05760006005600060018461062891906116b1565b81526020019081526020016000206000015490506000600560008381526020019081526020016000209050806040518060e0016040529081600082015481526020016001820160009054906101000a900473ffffffffffffffffffffffffffffffffffffffff1673ffffffffffffffffffffffffffffffffffffffff1673ffffffffffffffffffffffffffffffffffffffff168152602001600282015481526020016003820160009054906101000a900473ffffffffffffffffffffffffffffffffffffffff1673ffffffffffffffffffffffffffffffffffffffff1673ffffffffffffffffffffffffffffffffffffffff1681526020016004820160009054906101000a900473ffffffffffffffffffffffffffffffffffffffff1673ffffffffffffffffffffffffffffffffffffffff1673ffffffffffffffffffffffffffffffffffffffff168152602001600582015481526020016006820160009054906101000a900460ff1615151515815250508486815181106107d3577f4e487b7100000000000000000000000000000000000000000000000000000000600052603260045260246000fd5b60200260200101819052506001856107eb91906116b1565b945050505b80806107fb90611795565b915050610597565b508094505050505090565b60026000541415610854576040517f08c379a000000000000000000000000000000000000000000000000000000000815260040161084b9061162c565b60405180910390fd5b60026000819055506000811161089f576040517f08c379a0000000000000000000000000000000000000000000000000000000008152600401610896906115cc565b60405180910390fd5b60045434146108e3576040517f08c379a00000000000000000000000000000000000000000000000000000000081526004016108da9061160c565b60405180910390fd5b6108ed60016111e9565b60006108f960016111db565b90506040518060e001604052808281526020018573ffffffffffffffffffffffffffffffffffffffff1681526020018481526020013373ffffffffffffffffffffffffffffffffffffffff168152602001600073ffffffffffffffffffffffffffffffffffffffff16815260200183815260200160001515815250600560008381526020019081526020016000206000820151816000015560208201518160010160006101000a81548173ffffffffffffffffffffffffffffffffffffffff021916908373ffffffffffffffffffffffffffffffffffffffff1602179055506040820151816002015560608201518160030160006101000a81548173ffffffffffffffffffffffffffffffffffffffff021916908373ffffffffffffffffffffffffffffffffffffffff16021790555060808201518160040160006101000a81548173ffffffffffffffffffffffffffffffffffffffff021916908373ffffffffffffffffffffffffffffffffffffffff16021790555060a0820151816005015560c08201518160060160006101000a81548160ff0219169083151502179055509050508373ffffffffffffffffffffffffffffffffffffffff166323b872dd3330866040518463ffffffff1660e01b8152600401610ada9392919061152e565b600060405180830381600087803b158015610af457600080fd5b505af1158015610b08573d6000803e3d6000fd5b50505050828473ffffffffffffffffffffffffffffffffffffffff16827fcd9b0dfebab7db4dbe70606f69fadc8e987e7c80a65410f0bb5ae8bd72dabba7336000876000604051610b5c9493929190611565565b60405180910390a4506001600081905550505050565b60026000541415610bb8576040517f08c379a0000000000000000000000000000000000000000000000000000000008152600401610baf9061162c565b60405180910390fd5b6002600081905550600060056000838152602001908152602001600020600501549050600060056000848152602001908152602001600020600201549050813414610c38576040517f08c379a0000000000000000000000000000000000000000000000000000000008152600401610c2f906115ec565b60405180910390fd5b6005600084815260200190815260200160002060030160009054906101000a900473ffffffffffffffffffffffffffffffffffffffff1673ffffffffffffffffffffffffffffffffffffffff166108fc349081150290604051600060405180830381858888f19350505050158015610cb4573d6000803e3d6000fd5b508373ffffffffffffffffffffffffffffffffffffffff166323b872dd3033846040518463ffffffff1660e01b8152600401610cf29392919061152e565b600060405180830381600087803b158015610d0c57600080fd5b505af1158015610d20573d6000803e3d6000fd5b50505050336005600085815260200190815260200160002060040160006101000a81548173ffffffffffffffffffffffffffffffffffffffff021916908373ffffffffffffffffffffffffffffffffffffffff16021790555060016005600085815260200190815260200160002060060160006101000a81548160ff021916908315150217905550610db260026111e9565b600360009054906101000a900473ffffffffffffffffffffffffffffffffffffffff1673ffffffffffffffffffffffffffffffffffffffff166108fc6004549081150290604051600060405180830381858888f19350505050158015610e1c573d6000803e3d6000fd5b50505060016000819055505050565b60606000610e3960016111db565b905060008060005b83811015610ee2573373ffffffffffffffffffffffffffffffffffffffff1660056000600184610e7191906116b1565b815260200190815260200160002060030160009054906101000a900473ffffffffffffffffffffffffffffffffffffffff1673ffffffffffffffffffffffffffffffffffffffff161415610ecf57600183610ecc91906116b1565b92505b8080610eda90611795565b915050610e41565b5060008267ffffffffffffffff811115610f25577f4e487b7100000000000000000000000000000000000000000000000000000000600052604160045260246000fd5b604051908082528060200260200182016040528015610f5e57816020015b610f4b6111ff565b815260200190600190039081610f435790505b50905060005b848110156111d0573373ffffffffffffffffffffffffffffffffffffffff1660056000600184610f9491906116b1565b815260200190815260200160002060030160009054906101000a900473ffffffffffffffffffffffffffffffffffffffff1673ffffffffffffffffffffffffffffffffffffffff1614156111bd57600060056000600184610ff591906116b1565b81526020019081526020016000206000015490506000600560008381526020019081526020016000209050806040518060e0016040529081600082015481526020016001820160009054906101000a900473ffffffffffffffffffffffffffffffffffffffff1673ffffffffffffffffffffffffffffffffffffffff1673ffffffffffffffffffffffffffffffffffffffff168152602001600282015481526020016003820160009054906101000a900473ffffffffffffffffffffffffffffffffffffffff1673ffffffffffffffffffffffffffffffffffffffff1673ffffffffffffffffffffffffffffffffffffffff1681526020016004820160009054906101000a900473ffffffffffffffffffffffffffffffffffffffff1673ffffffffffffffffffffffffffffffffffffffff1673ffffffffffffffffffffffffffffffffffffffff168152602001600582015481526020016006820160009054906101000a900460ff1615151515815250508486815181106111a0577f4e487b7100000000000000000000000000000000000000000000000000000000600052603260045260246000fd5b60200260200101819052506001856111b891906116b1565b945050505b80806111c890611795565b915050610f64565b508094505050505090565b600081600001549050919050565b6001816000016000828254019250508190555050565b6040518060e0016040528060008152602001600073ffffffffffffffffffffffffffffffffffffffff16815260200160008152602001600073ffffffffffffffffffffffffffffffffffffffff168152602001600073ffffffffffffffffffffffffffffffffffffffff168152602001600081526020016000151581525090565b60008135905061128f816118fd565b92915050565b6000813590506112a481611914565b92915050565b600080604083850312156112bd57600080fd5b60006112cb85828601611280565b92505060206112dc85828601611295565b9150509250929050565b6000806000606084860312156112fb57600080fd5b600061130986828701611280565b935050602061131a86828701611295565b925050604061132b86828701611295565b9150509250925092565b60006113418383611482565b60e08301905092915050565b6113568161174d565b82525050565b6113658161173b565b82525050565b6113748161173b565b82525050565b600061138582611677565b61138f818561168f565b935061139a83611667565b8060005b838110156113cb5781516113b28882611335565b97506113bd83611682565b92505060018101905061139e565b5085935050505092915050565b6113e18161175f565b82525050565b6113f08161175f565b82525050565b6000611403601e836116a0565b915061140e8261180d565b602082019050919050565b60006114266033836116a0565b915061143182611836565b604082019050919050565b60006114496024836116a0565b915061145482611885565b604082019050919050565b600061146c601f836116a0565b9150611477826118d4565b602082019050919050565b60e0820160008201516114986000850182611510565b5060208201516114ab602085018261135c565b5060408201516114be6040850182611510565b5060608201516114d1606085018261134d565b5060808201516114e4608085018261134d565b5060a08201516114f760a0850182611510565b5060c082015161150a60c08501826113d8565b50505050565b6115198161178b565b82525050565b6115288161178b565b82525050565b6000606082019050611543600083018661136b565b611550602083018561136b565b61155d604083018461151f565b949350505050565b600060808201905061157a600083018761136b565b611587602083018661136b565b611594604083018561151f565b6115a160608301846113e7565b95945050505050565b600060208201905081810360008301526115c4818461137a565b905092915050565b600060208201905081810360008301526115e5816113f6565b9050919050565b6000602082019050818103600083015261160581611419565b9050919050565b600060208201905081810360008301526116258161143c565b9050919050565b600060208201905081810360008301526116458161145f565b9050919050565b6000602082019050611661600083018461151f565b92915050565b6000819050602082019050919050565b600081519050919050565b6000602082019050919050565b600082825260208201905092915050565b600082825260208201905092915050565b60006116bc8261178b565b91506116c78361178b565b9250827fffffffffffffffffffffffffffffffffffffffffffffffffffffffffffffffff038211156116fc576116fb6117de565b5b828201905092915050565b60006117128261178b565b915061171d8361178b565b9250828210156117305761172f6117de565b5b828203905092915050565b60006117468261176b565b9050919050565b60006117588261176b565b9050919050565b60008115159050919050565b600073ffffffffffffffffffffffffffffffffffffffff82169050919050565b6000819050919050565b60006117a08261178b565b91507fffffffffffffffffffffffffffffffffffffffffffffffffffffffffffffffff8214156117d3576117d26117de565b5b600182019050919050565b7f4e487b7100000000000000000000000000000000000000000000000000000000600052601160045260246000fd5b7f5072696365206d757374206265206174206c65617374206f6e65207765690000600082015250565b7f506c65617365207375626d6974207468652061736b696e67207072696365206960008201527f6e206f7264657220746f20636f6e74696e756500000000000000000000000000602082015250565b7f5072696365206d75737420626520657175616c20746f206c697374696e67207060008201527f7269636500000000000000000000000000000000000000000000000000000000602082015250565b7f5265656e7472616e637947756172643a207265656e7472616e742063616c6c00600082015250565b6119068161173b565b811461191157600080fd5b50565b61191d8161178b565b811461192857600080fd5b5056fea2646970667358221220b76c37b804ce9d5b647c54f2ef7701575143ab15808432109e7efeb26356e91164736f6c63430008040033",
  "immutableReferences": {},
  "source": "//SPDX-License-Identifier: MIT\npragma solidity 0.8.4;\n\nimport '@openzeppelin/contracts/token/ERC721/ERC721.sol';\nimport '@openzeppelin/contracts/security/ReentrancyGuard.sol';\nimport '@openzeppelin/contracts/utils/Counters.sol';\nimport 'hardhat/console.sol';\ncontract MVMarket is ReentrancyGuard {\n\tusing Counters for Counters.Counter;\n\n    Counters.Counter private _tokenIds;\n    Counters.Counter private _tokensSold;\n\n    address payable owner;\n\n    uint listingPrice = 1 ether;\n\n    constructor() {\n        owner = payable(msg.sender);\n    }\n    struct MarketToken {\n        uint itemId;\n        address nftContract;\n        uint256 tokenId;\n        address payable seller;\n        address payable owner;\n        uint256 price;\n        bool sold;\n    }\n\n    mapping(uint256 => MarketToken) private idToMarketToken;\n\n    event MarketTokenMinted(\n        uint indexed itemId,\n        address indexed nftContract,\n        uint256 indexed tokenId,\n        address seller,\n        address owner,\n        uint256 price,\n        bool sold\n    );\n\n    function getListingPrice() public view returns (uint256) {\n\t    return listingPrice;\n    }\n\n    function makeMarketItem(address nftContract, uint tokenId, uint price) public payable nonReentrant {\n\t    require(price > 0, 'Price must be at least one wei');\n\t    require(msg.value == listingPrice, 'Price must be equal to listing price');\n\t    _tokenIds.increment();\n\t    uint itemId = _tokenIds.current();\n\t    idToMarketToken[itemId] = MarketToken(\n\t        itemId,\n            nftContract,\n   \t        tokenId,\n            payable(msg.sender),\n            payable(address(0)),\n            price,\n            false\n        );\n    //transfering the minted tokens from contract/owner/msg.sender to buyer/minter \n        IERC721(nftContract).transferFrom(msg.sender, address(this), tokenId);\n\n        emit MarketTokenMinted(itemId,nftContract,tokenId,msg.sender,address(0),price,false);\n    }\n\n    function createMarketSale (address nftContract, uint itemId) public payable nonReentrant {\n\t    uint price = idToMarketToken[itemId].price;\n\t    uint tokenId = idToMarketToken[itemId].tokenId;\n\t    require(msg.value == price, 'Please submit the asking price in order to continue');\n\t    //transfer the amount to the seller\n\t    idToMarketToken[itemId].seller.transfer(msg.value);\n\t    //transfer token/NFT from contract address to the buyer\n        IERC721(nftContract).transferFrom(address(this), msg.sender, tokenId);\n        idToMarketToken[itemId].owner = payable(msg.sender);\n\t    idToMarketToken[itemId].sold = true;\n        _tokensSold.increment();\n        payable(owner).transfer(listingPrice);\n    }\n\n    //return the 'unsold' nft's\n    function getMarketTokens() public view returns(MarketToken[] memory) {\n        uint itemCount = _tokenIds.current();\n        uint unsoldItemCount = _tokenIds.current() - _tokensSold.current();\n        uint currentIndex = 0;\n        MarketToken[] memory items = new MarketToken[](unsoldItemCount);\n        for(uint i = 0; i < itemCount; i++) {\n            if(idToMarketToken[i + 1].owner == address(0)) {\n\t            uint currentId = i + 1;\n                MarketToken storage currentItem = idToMarketToken[currentId];\n\t            items[currentIndex] = currentItem;\n\t            currentIndex += 1;\n\t        }\n        }\n\t    return items;\n    }\n\n    //return nfts that the user has purchased\n    function getMyNFTs() public view returns (MarketToken[] memory) {\n\t      uint totalItemCount = _tokenIds.current();\n\t      uint itemCount = 0;\n\t      uint currentIndex = 0;\n\t      for(uint i = 0; i < totalItemCount; i++) {\n                if(idToMarketToken[i + 1].seller == msg.sender) {\n                    itemCount += 1;\n                }\n            }\n          //second loop to retrieve the tokenIds within the tokenCount beloning to owner/msg.sender\n          //array to hold the tokenIds\n          MarketToken[] memory items = new MarketToken[](itemCount);\n          for(uint i = 0; i < totalItemCount; i++) {\n\t         if(idToMarketToken[i + 1].owner == msg.sender) {\n\t            uint currentId = idToMarketToken[i + 1].itemId;\n                //assign the currentId to the MarketToken[] array\n                MarketToken storage currentItem = idToMarketToken[currentId];\n\t            items[currentIndex] = currentItem;\n                currentIndex += 1;\n                }\n          }\n          return items;\n    }\n    \n    function getItemsCreated() public view returns(MarketToken[] memory) {\n\t    //instead of owner tokens it will retrieve .seller tokens\n\t    uint totalItemCount = _tokenIds.current();\n\t    uint itemCount = 0;\n\t    uint currentIndex = 0;\n        for (uint i = 0; i < totalItemCount; i++) {\n\t\t    if(idToMarketToken[i + 1].seller == msg.sender) {\n\t\t\titemCount += 1;\n\t\t    }\n        }\n          MarketToken[] memory items = new MarketToken[](itemCount);\n            for(uint i = 0; i < totalItemCount; i++) {\n\t         if(idToMarketToken[i + 1].seller == msg.sender) {\n\t            uint currentId = idToMarketToken[i + 1].itemId;\n                MarketToken storage currentItem = idToMarketToken[currentId];\n\t            items[currentIndex] = currentItem;\n                currentIndex += 1;\n                }\n            }\n            return items;\n    }\n}\n",
  "sourcePath": "/Users/josephdeangeloi/Documents/Udemy/Build An NFT Marketplace From Scratch/nft-music-videos-marketplace/contracts/MVMarket.sol",
  "compiler": {
    "name": "solc",
    "version": "0.8.4+commit.c7e474f2.Emscripten.clang"
  },
  "schemaVersion": "3.4.3",
  "updatedAt": "2021-11-22T14:07:14.493Z",
  "devdoc": {
    "kind": "dev",
    "methods": {},
    "version": 1
  },
  "userdoc": {
    "kind": "user",
    "methods": {},
    "version": 1
  }
}